:1000000002000712002B3275800075900075A00069
:0F00100075B00478007A007B0079007C007D00D9
:0E001F007E007F0090060075A881D2B8C28CCA
:0F002D0030B10E12008CD28C2230B1FD12006067
:10003C0080FE120057D2B112008C22D28C308DFD72
:0F004C0009C28CC28DB97AF3790022D2B511475F
:0F005B001147C2B52211471200B6BA09F8114772
:0E006A00E5A01200B1B460141200AB1200BA8F
:10007800BB09E5E5801200B1F5807B0080DAF5A0C8
:0E0088007A0080D4E893FC0D0EDC030200A386
:10009600BE09F6ED94092410FD7E00DCEC8D900877
:1000A6007D007E002275A0007A0022940924102289
:0800B60005A00A220B058022BF
:1006000019082109264B321022421C38472F355A2F
:100610003A1B021F1207013C0B36574C4A3F1A6027
:050620004845173753A7
:00000001FF
